:020000040800F2
:10000000005000205D170008310400083304000888
:100010003504000837040008390400080000000017
:100020000000000000000000000000003B04000889
:100030003D040008000000003F04000841040008DF
:10004000A5170008A5170008A5170008A5170008A0
:10005000A5170008A5170008A5170008A517000890
:10006000A5170008A5170008A5170008A517000880
:10007000A5170008A5170008A5170008A517000870
:10008000A5170008A5170008A5170008A517000860
:10009000A5170008A5170008A5170008A517000850
:1000A000A5170008A5170008A517000849040008AF
:1000B000A5170008A5170008A5170008A517000830
:1000C000A5170008A5170008A5170008A517000820
:1000D000A5170008A5170008A5170008A517000810
:1000E000A5170008A5170008A517000800000000C4
:1000F0000000000000000000000000000000000000
:0C01000000000000000000005FF808F1A3
:10010C0010B5054C237833B9044B13B10448AFF345
:10011C0000800123237010BD0C00002000000000A3
:10012C000018000808B5034B1BB103490348AFF393
:10013C00008008BD0000000010000020001800081E
:10014C00014B1B68986370472C00002072B6FEE7C9
:10015C0010B590B006AC28220021204601F01DFB02
:10016C0000230193029303930493059301220692B7
:10017C004FF4803307930A9202220D920E934FF4A0
:10018C00E0130F93204600F06FFE78B90F23019314
:10019C0002210291002303934FF480620492059391
:1001AC0001A801F093F818B910B010BDFFF7CEFFFD
:1001BC00FFF7CCFF08B500F01DFEFFF7C9FF00F0FC
:1001CC0035F800F0B7F8164C0421204600F0AAFCD4
:1001DC000421204600F020FD09E04FF48051114825
:1001EC0001F034FA18B1104B1B68012B11D04FF4ED
:1001FC0080510C4801F02AFA0028EED10A4B1B68FA
:10020C00002BEAD1084B01221A606420FFF798FFFB
:10021C00EDE7054B00221A60B420FFF791FFE6E7EB
:10022C002C000020000C01402800002000B589B0F3
:10023C0004A9002304934B608B60CB6003F18043D3
:10024C0003F504339A6942F010029A619A6902F03C
:10025C0010020092009A9A6942F020029A619A69FF
:10026C0002F020020192019A9A6942F008029A6106
:10027C009A6902F008020292029A9A6942F0040208
:10028C009A619B6903F004030393039B4FF480531F
:10029C000493034801F0D0F809B05DF804FB00BFEB
:1002AC00000C014002680E4B9A4200D0704700B51A
:1002BC0083B003F564439A6942F400629A619B69C6
:1002CC0003F400630193019B002211461B2001F0F3
:1002DC000BFA1B2001F018FA03B05DF804FB00BF09
:1002EC00002C014000B587B00023029303930493C4
:1002FC00059302680D4B9A4202D007B05DF804FBDF
:10030C0003F564439A6942F008029A619B6903F011
:10031C0008030193019B4FF4804302930223039340
:10032C00059302A9024801F087F8E6E7002C01408A
:10033C00000C014010B596B0002412941394149440
:10034C0015941094119409940A940B940C940D9494
:10035C000E940F942022214601A801F01EFA2F487A
:10036C002F4B036041F61F4343608460C723C36077
:10037C0004614461846100F031FA00283BD14FF4F0
:10038C008053129312A9254800F03EFB002835D16A
:10039C00224800F04FFA002833D100231093119318
:1003AC0010A91E4800F09EFC00282DD16023099353
:1003BC00B4230A9300230B9308220C920D930E93F3
:1003CC000F93042209A9154800F08EFAF8B90023FE
:1003DC00019302930393049305934FF400520692F6
:1003EC00089301A90D4800F0B3FC98B90B48FFF72E
:1003FC0079FF16B010BDFFF7A9FEC0E7FFF7A6FE08
:10040C00C6E7FFF7A3FEC8E7FFF7A0FECEE7FFF7AE
:10041C009DFEDCE7FFF79AFEE8E700BF2C0000200A
:10042C00002C0140FEE7FEE7FEE7FEE7FEE7704723
:10043C007047704708B500F0EFFC08BD08B50248DE
:10044C0000F0D5F808BD00BF2C00002082B00E4B88
:10045C009A6942F001029A619A6902F001020092D3
:10046C00009ADA6942F08052DA61DB6903F080535A
:10047C000193019B054A536823F0E06343F000733A
:10048C00536002B0704700BF0010024000000140F2
:10049C0030B4026A036A23F001030362456883697E
:1004AC0023F073030C681C4322F002028B68134385
:1004BC000B4A904206D0456084614A6842630362ED
:1004CC0030BC704723F00803CA681A4322F00403B7
:1004DC0025F440754A692A438D691543EBE700BF43
:1004EC00002C014030B4036A026A22F4807202626A
:1004FC004468C26922F073020D68154323F400733B
:10050C008A6843EA02230D4A904206D04460C561D2
:10051C004A68C263036230BC704723F40063CA6844
:10052C0043EA022323F4806324F440544A6944EAE6
:10053C0002148A6944EA0214E8E700BF002C014067
:10054C0030B4036A026A22F4805202624468C269BF
:10055C0022F4E6420D6842EA052223F400538D682A
:10056C0043EA0533074DA84206D04460C2614A688D
:10057C000264036230BC704724F480444D6944EA41
:10058C008514F2E7002C014010B4036A046A24F0CD
:10059C0001040462846924F0F00C4CEA021223F08A
:1005AC000A030B438261036210BC704710B4036AE8
:1005BC00046A24F010040462846924F4704C4CEA3C
:1005CC00023223F0A00343EA01138261036210BCE0
:1005DC007047836823F070030B4343F00703836079
:1005EC00704770477047704770477047704710B539
:1005FC00044603681A6912F0020F11D0DA6812F07F
:10060C00020F0DD06FF002021A6101230377036809
:10061C009B6913F0030F70D0FFF7E6FF00232377DD
:10062C0023681A6912F0040F12D0DA6812F0040F62
:10063C000ED06FF004021A610223237723689B69A2
:10064C0013F4407F5FD02046FFF7CEFF00232377C3
:10065C0023681A6912F0080F12D0DA6812F0080F2A
:10066C000ED06FF008021A61042323772368DB692C
:10067C0013F0030F4ED02046FFF7B6FF002323776D
:10068C0023681A6912F0100F12D0DA6812F0100FEA
:10069C000ED06FF010021A61082323772368DB69F0
:1006AC0013F4407F3DD02046FFF79EFF00232377B5
:1006BC0023681A6912F0010F03D0DA6812F0010FE7
:1006CC0036D123681A6912F0800F03D0DA6812F061
:1006DC00800F34D123681A6912F0400F03D0DA6806
:1006EC0012F0400F32D123681A6912F0200F03D098
:1006FC00DA6812F0200F30D110BDFFF774FF2046DE
:10070C00FFF773FF8AE72046FFF76DFF2046FFF7E0
:10071C006CFF9BE72046FFF766FF2046FFF765FF5F
:10072C00ACE72046FFF75FFF2046FFF75EFFBDE713
:10073C006FF001021A612046FFF754FFC1E76FF01A
:10074C0080021A61204600F02DFBC3E76FF04002D7
:10075C001A612046FFF74AFFC5E76FF020021A61C5
:10076C00204600F01EFBC7E703681B4A90420AD0E4
:10077C00B0F1804F07D0A2F59432904203D002F52D
:10078C008062904203D123F070034A681343124AEB
:10079C0090420AD0B0F1804F07D0A2F5943290422B
:1007AC0003D002F58062904203D123F44073CA68EF
:1007BC00134323F080034A69134303608B68C362BD
:1007CC000B688362044B984202D00123436170474B
:1007DC000B690363F9E700BF002C014040B310B56F
:1007EC00044690F83D30F3B1022384F83D302146A5
:1007FC0051F8040BFFF7B8FF012384F8463084F856
:10080C003E3084F83F3084F8403084F8413084F82E
:10081C00423084F8433084F8443084F8453084F80E
:10082C003D30002010BD80F83C30FFF73BFDDBE78E
:10083C000120704740B310B5044690F83D30F3B139
:10084C00022384F83D30214651F8040BFFF78CFF4E
:10085C00012384F8463084F83E3084F83F3084F825
:10086C00403084F8413084F8423084F8433084F8C6
:10087C00443084F8453084F83D30002010BD80F8B9
:10088C003C30FFF7AEFEDBE70120704730B4036A63
:10089C00026A22F0100202624468826922F4E64283
:1008AC000D6842EA052223F020038D6843EA051304
:1008BC000C4DA84206D0446082614A688263036290
:1008CC0030BC704723F08003CD6843EA051323F056
:1008DC00400324F440644D6944EA85048D6944EA7C
:1008EC008504E8E7002C014038B590F83C30012B2A
:1008FC007BD004460D46012380F83C300C2A6FD87F
:10090C0001A353F822F000BF49090008ED090008C3
:10091C00ED090008ED09000871090008ED0900084F
:10092C00ED090008ED0900089B090008ED09000815
:10093C00ED090008ED090008C30900080068FFF77D
:10094C00A7FD2268936943F00803936122689369B9
:10095C0023F0040393612268936929690B43936123
:10096C0000203EE00068FFF791FF2268936943F492
:10097C00006393612268936923F480639361226816
:10098C009369296943EA01239361002029E00068F7
:10099C00FFF7A8FD2268D36943F00803D3612268EE
:1009AC00D36923F00403D3612268D36929690B430B
:1009BC00D361002015E00068FFF7C2FD2268D369FF
:1009CC0043F40063D3612268D36923F48063D36159
:1009DC002268D369296943EA0123D361002000E02E
:1009EC000120002384F83C3038BD0220FCE700BF16
:1009FC0010B4846824F47F4C42EA03220A4342EA8E
:100A0C000C02826010BC704790F83C30012B78D0FF
:100A1C0010B50446012380F83C30022380F83D30A9
:100A2C000268936823F47F4323F0770393600B6889
:100A3C00602B4CD023D8402B54D011D8202B03D072
:100A4C000AD80BB1102B05D119462068FFF7C1FD50
:100A5C00002028E0012026E0302BF5D0012022E0F8
:100A6C00502B0AD1CA6849680068FFF78DFD5021E8
:100A7C002068FFF7AEFD002015E0012013E0B3F570
:100A8C00805F3AD0B3F5005F14D0702B37D1CB68B0
:100A9C004A6889680068FFF7ABFF2268936843F0E7
:100AAC00770393600020012384F83D30002384F801
:100ABC003C3010BDCB684A6889680068FFF798FF26
:100ACC002268936843F4804393600020EBE7CA6884
:100ADC0049680068FFF76AFD60212068FFF779FD1F
:100AEC000020E0E7CA6849680068FFF74DFD402127
:100AFC002068FFF76EFD0020D5E70020D3E701202A
:100B0C00D1E70220704701F01F014FF0010C0CFAE5
:100B1C0001FC036A23EA0C030362036A8A40134351
:100B2C000362704710B50446084649BB94F83E3042
:100B3C00013B18BF0123002B58D1002836D10223CA
:100B4C0084F83E30012201462068FFF7DCFF236861
:100B5C00284A93423AD02368264A93423BD0B3F1B9
:100B6C00804F38D0A2F59432934234D002F5806293
:100B7C00934230D01A6842F001021A60002036E02D
:100B8C00042907D008290BD094F84130013B18BF39
:100B9C000123D0E794F83F30013B18BF0123CAE78B
:100BAC0094F84030013B18BF0123C4E7042805D05A
:100BBC00082807D0022384F84130C3E7022384F8C5
:100BCC003F30BFE7022384F84030BBE75A6C42F455
:100BDC0000425A64BFE79A6802F00702062A07D05F
:100BEC001A6842F001021A60002000E0012010BDDA
:100BFC000020FCE7002C014001F01F014FF0040C19
:100C0C000CFA01FC036A23EA0C030362036A8A40B0
:100C1C00134303627047000010B50446084651BBED
:100C2C0094F84230013B18BF0123002B54D100280B
:100C3C0037D1022384F84230042201462068FFF7A2
:100C4C00DBFF2268536C43F4004353642368244A4B
:100C5C00934236D0B3F1804F33D0A2F59432934205
:100C6C002FD002F5806293422BD01A6842F0010219
:100C7C001A60002031E0042907D008290BD094F821
:100C8C004530013B18BF0123CFE794F84330013BBB
:100C9C0018BF0123C9E794F84430013B18BF012366
:100CAC00C3E7042805D0082807D0022384F8453070
:100CBC00C2E7022384F84330BEE7022384F84430B1
:100CCC00BAE79A6802F00702062A07D01A6842F0BF
:100CDC0001021A60002000E0012010BD0020FCE79A
:100CEC00002C014090F83C20012A2CD010B4034673
:100CFC00012280F83C20022280F83D2002685068D6
:100D0C00946820F0700C086840EA0C0050601A6877
:100D1C000E4882420AD0B2F1804F07D0A0F5943031
:100D2C00824203D000F58060824204D124F080041A
:100D3C00496821439160012283F83D20002083F80B
:100D4C003C0010BC70470220704700BF002C0140D3
:100D5C00024690F83C30012B21D0012380F83C3026
:100D6C00CB6823F440738868034323F4806348689A
:100D7C00034323F400630868034323F48053086996
:100D8C00034323F400534869034323F48043C969A4
:100D9C000B4311684B64002082F83C007047022022
:100DAC00704770477047000010B504460E4B1A7818
:100DBC004FF47A73B3FBF2F30C4A1068B0FBF3F008
:100DCC0000F0B0FC68B90F2C01D901200AE0002218
:100DDC0021464FF0FF3000F087FC054B1C600020D3
:100DEC0000E0012010BD00BF000000200800002022
:100DFC000400002008B5074A136843F01003136081
:100E0C00032000F05FFC0020FFF7CEFFFFF71EFB76
:100E1C00002008BD00200240034A1168034B1B78D8
:100E2C000B441360704700BF7400002000000020CA
:100E3C00014B1868704700BF7400002082B0084B4B
:100E4C001B68084AA2FB03235B0A00FB03F3019314
:100E5C0000BF019B5A1E0192002BF9D102B07047C2
:100E6C0008000020D34D6210002800F0F18170B50D
:100E7C0082B00446036813F0010F2CD0994B5B68C9
:100E8C0003F00C03042B1DD0964B5B6803F00C0392
:100E9C00082B12D06368B3F5803F41D0002B55D19D
:100EAC0003F1804303F504331A6822F480321A608C
:100EBC001A6822F480221A6037E08A4B5B6813F4BC
:100ECC00803FE7D0874B1B6813F4003F03D0636867
:100EDC00002B00F0BF81236813F0020F75D0814BFB
:100EEC005B6813F00C0F5FD07E4B5B6803F00C0358
:100EFC00082B54D02369002B00F08A807A4B0122F6
:100F0C001A60FFF795FF0546764B1B6813F0020F2E
:100F1C0075D1FFF78DFF401B0228F5D903209EE108
:100F2C00704A136843F480331360636843B3FFF76C
:100F3C007FFF05466B4B1B6813F4003FCBD1FFF7CB
:100F4C0077FF401B6428F5D9032088E1B3F5A02F67
:100F5C0009D0644B1A6822F480321A601A6822F4A1
:100F6C0080221A60E1E703F18043A3F53C331A6851
:100F7C0042F480221A601A6842F480321A60D4E774
:100F8C00FFF756FF0546574B1B6813F4003FA2D0E2
:100F9C00FFF74EFF401B6428F5D903205FE1514B4E
:100FAC005B6813F4803FA5D14E4B1B6813F0020F06
:100FBC0003D02369012B40F04F814A4A136823F078
:100FCC00F803616943EAC1031360236813F0080F47
:100FDC0033D0A369002B5CD0434B0122C3F880248F
:100FEC00FFF726FF05463F4B5B6A13F0020F21D13A
:100FFC00FFF71EFF401B0228F5D903202FE1394AC9
:10100C00136823F0F803616943EAC1031360DCE75A
:10101C00354B00221A60FFF70BFF0546314B1B685E
:10102C0013F0020FD1D0FFF703FF401B0228F5D9B4
:10103C00032014E10120FFF701FF236813F0040FD4
:10104C0000F09680274BDB6913F0805F34D1254B81
:10105C00DA6942F08052DA61DB6903F08053019364
:10106C00019B0125214B1B6813F4807F26D0E3687C
:10107C00012B3DD0002B53D103F1804303F50433F6
:10108C001A6A22F001021A621A6A22F004021A6227
:10109C0033E0154B0022C3F88024FFF7C9FE054648
:1010AC00104B5B6A13F0020FC7D0FFF7C1FE401B59
:1010BC000228F5D90320D2E00025D3E70B4A1368A8
:1010CC0043F480731360FFF7B3FE0646074B1B68AF
:1010DC0013F4807FCBD1FFF7ABFE801B6428F5D9CE
:1010EC000320BCE0001002400000424200700040AF
:1010FC005F4A136A43F001031362E36833B3FFF7EB
:10110C0097FE06465A4B1B6A13F0020F2FD1FFF7BE
:10111C008FFE801B41F288339842F3D903209EE066
:10112C00052B09D0524B1A6A22F001021A621A6A74
:10113C0022F004021A62E0E74D4B1A6A42F00402F4
:10114C001A621A6A42F001021A62D6E7FFF770FEC1
:10115C000646474B1B6A13F0020F08D0FFF768FED8
:10116C00801B41F288339842F3D9032077E0E5B92C
:10117C00E369002B72D03E4A526802F00C02082A36
:10118C0056D0022B17D03B4B00221A66FFF750FEAD
:10119C000446374B1B6813F0007F47D0FFF748FE1F
:1011AC00001B0228F5D9032059E0314AD36923F0FA
:1011BC008053D361DCE72F4B00221A66FFF738FE11
:1011CC0005462B4B1B6813F0007F06D0FFF730FE53
:1011DC00401B0228F5D9032041E0236AB3F5803F78
:1011EC001AD023494B6823F47413226A606A0243B1
:1011FC0013434B601F4B01221A66FFF719FE04467E
:10120C001B4B1B6813F0007F0ED1FFF711FE001B68
:10121C000228F5D9032022E0154A536823F4003341
:10122C00A1680B435360DCE7002018E0002016E0B7
:10123C00012B16D00E4B5B6803F48031226A91426D
:10124C0011D103F47013626A93420ED1002006E0B0
:10125C0001207047012002E0012000E0002002B0D4
:10126C0070BD0120FBE70120F9E70120F7E700BF83
:10127C0000100240000042420F4B5B6803F00C026E
:10128C00082A01D00D487047C3F383420C49885C8F
:10129C0013F4803F0BD0084B5B68C3F34043094AFF
:1012AC00D35C064A02FB00F0B0FBF3F07047064B30
:1012BC0003FB00F0704700BF0010024000127A00E0
:1012CC001C1800081818000800093D00002800F040
:1012DC00A08070B50D460446524B1B6803F0070303
:1012EC008B420BD24F4A136823F007030B43136056
:1012FC00136803F007038B4240F08D80236813F0D2
:10130C00020F17D013F0040F04D0474A536843F46C
:10131C00E0635360236813F0080F04D0424A53680B
:10132C0043F460535360404A536823F0F003A168C0
:10133C000B435360236813F0010F31D06368012B0A
:10134C0020D0022B25D0384A126812F0020F64D03C
:10135C0035494A6822F0030213434B60FFF768FDDE
:10136C000646314B5B6803F00C036268B3EB820FEB
:10137C0016D0FFF75DFD801B41F288339842F0D9FF
:10138C00032045E0284A126812F4003FE0D1012006
:10139C003EE0254A126812F0007FD9D1012037E0D7
:1013AC00204B1B6803F00703AB420AD91D4A136894
:1013BC0023F007032B431360136803F00703AB42BE
:1013CC002DD1236813F0040F06D0174A536823F469
:1013DC00E063E1680B435360236813F0080F07D0F8
:1013EC00114A536823F46053216943EAC1035360E3
:1013FC00FFF742FF0C4B5B68C3F303130B4AD35C40
:10140C00D8400B4B18600B4B1868FFF7CDFC002035
:10141C0070BD012070470120FAE70120F8E7012098
:10142C00F6E700BF00200240001002402C18000814
:10143C00080000200400002070B582B00024A446EF
:10144C009EE07C4DAB4214D00CD8A5F58015AB4278
:10145C000FD005F57025AB420BD0A5F58015AB422E
:10146C001FD106E0744DAB4203D005F58035AB427D
:10147C0017D18B68A3B1012B0DD04261082410E069
:10148C00CC680EE0CC6804340BE0CC68083408E07F
:10149C00CC680C3405E00261082402E0002400E072
:1014AC000424BEF1FF0F37D806464FEA8C0233688E
:1014BC000F25954023EA050304FA02F21343336027
:1014CC004B6813F0805F59D05C4B9A6942F0010273
:1014DC009A619B6903F001030193019B4FEA9C0203
:1014EC00951C574B53F825600CF00305AD000F23EA
:1014FC00AB4026EA0306534B984214D003F58063A5
:10150C00984279D003F58063984277D003F58063D5
:10151C00984206D0042307E0061DACF108029200A5
:10152C00C5E7032300E00023AB4033430232444DB4
:10153C0045F822304B6813F4801F61D0424A9368FF
:10154C0043EA0E0393604B6813F4001F5ED03E4ACF
:10155C00D36843EA0E03D3604B6813F4003F5BD0AF
:10156C00394A536843EA0E0353604B6813F4803FC7
:10157C0058D0354A136843EA0E0313600CF1010C82
:10158C000B6833FA0CF253D0012202FA0CF203EA84
:10159C00020E32EA0303F1D14B68122B3FF651AF26
:1015AC00122B3FF67EAF01A555F823F07F140008EF
:1015BC008D14000897140008A9140008AF14000833
:1015CC00AF140008AF140008AF140008AF140008E3
:1015DC00AF140008AF140008AF140008AF140008D3
:1015EC00AF140008AF140008AF140008AF140008C3
:1015FC00911400089D140008012395E7022393E73A
:10160C00114A936823EA0E0393609CE70E4AD36851
:10161C0023EA0E03D3609FE70B4A536823EA0E03B9
:10162C005360A2E7084A136823EA0E031360A5E788
:10163C0002B070BD000022100000311000100240FA
:10164C000000014000080140000401408368194279
:10165C0001D001207047002070470000002808DBF3
:10166C000901C9B200F1604000F5614080F8001337
:10167C00704700F00F000901C9B2014B19547047B3
:10168C0014ED00E000B500F00700C0F1070CBCF150
:10169C00040F28BF4FF0040C031D062B0FD9C31EDB
:1016AC004FF0FF3E0EFA0CF021EA000199400EFAC1
:1016BC0003FE22EA0E0241EA02005DF804FB00235D
:1016CC00EEE70000074AD36823F4E0631B041B0C0D
:1016DC00000200F4E060034343F0BF6343F40033C3
:1016EC00D360704700ED00E010B50446054BD86898
:1016FC00C0F30220FFF7C6FF01462046FFF7AEFFFE
:10170C0010BD00BF00ED00E0002807DB00F01F0259
:10171C00400901239340024A42F82030704700BF31
:10172C0000E100E00138B0F1807F0BD24FF0E023F4
:10173C005861054AF02182F8231000209861072295
:10174C001A6170470120704700ED00E070470000FF
:10175C00FFF7FCFF0B480C490C4A002302E0D4585D
:10176C00C4500433C4188C42F9D3094A094C0023E1
:10177C0001E013600432A242FBD300F017F8FEF72D
:10178C0019FD7047000000200C00002044180008D0
:10179C000C00002078000020FEE703460244934230
:1017AC0000D1704703F8011BF9E7000070B5002663
:1017BC000C4D0D4C641BA410A64209D100F01AF874
:1017CC0000260A4D0A4C641BA410A64205D170BD1C
:1017DC0055F8043B98470136EEE755F8043B98471B
:1017EC000136F2E73C1800083C1800083C180008C9
:1017FC0040180008F8B500BFF8BC08BC9E467047FE
:0C180C00F8B500BFF8BC08BC9E46704751
:101818000102000002030405060708090A0B0C0D63
:101828000E0F101000000000000000000102030469
:04183800060708098E
:04183C00310100086E
:041840000D0100088E
:0C18440001000000100000000024F4006F
:040000050800175D7B
:00000001FF
