:020000040800F2
:100000000050002039230008750F0008770F000802
:10001000790F00087B0F00087D0F0008000000002A
:100020000000000000000000000000007F0F00083A
:10003000810F000800000000830F0008850F0008F2
:100040008123000881230008812300088123000800
:1000500081230008812300088123000881230008F0
:1000600081230008812300088123000881230008E0
:1000700081230008812300088123000881230008D0
:1000800081230008812300088123000881230008C0
:1000900081230008812300088123000881230008B0
:1000A00081230008812300088123000881230008A0
:1000B0008123000881230008812300088123000890
:1000C0008123000881230008812300088123000880
:1000D0008123000881230008812300088123000870
:1000E000812300088123000881230008000000000C
:1000F0000000000000000000000000000000000000
:0C01000000000000000000005FF808F1A3
:1001100070B54FF0FF0C4CF4E06C1CEA11541DBF9D
:100120001CEA135594EA0C0F95EA0C0F00F0DEF868
:100130002C4481EA030621EA4C5123EA4C5350EA4D
:10014000013518BF52EA033541F4801143F480139E
:1001500038D0A0FB02CE4FF00005E1FB02E506F02F
:100160000042E0FB03E54FF00006E1FB03569CF084
:10017000000F18BF4EF0010EA4F1FF04B6F5007F8A
:1001800064F5407404D25FEA4E0E6D4146EB0606FC
:1001900042EAC62141EA55514FEAC52040EA5E5085
:1001A0004FEACE2EB4F1FD0C88BFBCF5E06F1ED82F
:1001B000BEF1004F08BF5FEA500E50F1000041EB66
:1001C000045170BD06F0004646EA010140EA020013
:1001D00081EA0301B4EB5C04C2BFD4EB0C0541EA35
:1001E000045170BD41F480114FF0000E013C00F34A
:1001F000AB8014F1360FDEBF002001F0004170BD6E
:10020000C4F10004203C35DA0C341BDC04F1140486
:10021000C4F1200500FA05F320FA04F001FA05F212
:1002200040EA020001F0004221F0004110EBD370DF
:1002300021FA04F642EB06015EEA430E08BF20EA0B
:10024000D37070BDC4F10C04C4F1200500FA04F3AE
:1002500020FA05F001FA04F240EA020001F0004140
:1002600010EBD37041F100015EEA430E08BF20EAB3
:10027000D37070BDC4F1200500FA05F24EEA020EFB
:1002800020FA04F301FA05F243EA020321FA04F02A
:1002900001F0004121FA04F220EA020000EBD370E1
:1002A0005EEA430E08BF20EAD37070BD94F0000FE1
:1002B0000FD101F00046400041EB010111F4801F15
:1002C00008BF013CF7D041EA060195F0000F18BFC6
:1002D000704703F00046520043EB030313F4801F02
:1002E00008BF013DF7D043EA0603704794EA0C0FBC
:1002F0000CEA135518BF95EA0C0F0CD050EA4106D2
:1003000018BF52EA4306D1D181EA030101F000414E
:100310004FF0000070BD50EA410606BF1046194676
:1003200052EA430619D094EA0C0F02D150EA013682
:1003300013D195EA0C0F05D152EA03361CBF1046C3
:1003400019460AD181EA030101F0004141F0FE4162
:1003500041F470014FF0000070BD41F0FE4141F4E6
:10036000780170BD81F0004102E000BF83F00043DE
:1003700030B54FEA41044FEA430594EA050F08BF40
:1003800090EA020F1FBF54EA000C55EA020C7FEA04
:10039000645C7FEA655C00F0E2804FEA5454D4EB81
:1003A0005555B8BF6D420CDD2C4480EA020281EA4B
:1003B000030382EA000083EA010180EA020281EA83
:1003C0000303362D88BF30BD11F0004F4FEA0131D5
:1003D0004FF4801C4CEA113102D0404261EB4101E4
:1003E00013F0004F4FEA03334CEA133302D052426A
:1003F00063EB430394EA050F00F0A780A4F1010426
:10040000D5F1200E0DDB02FA0EFC22FA05F280185F
:1004100041F1000103FA0EF2801843FA05F3594145
:100420000EE0A5F120050EF1200E012A03FA0EFCC4
:1004300028BF4CF0020C43FA05F3C01851EBE371EE
:1004400001F0004507D54FF0000EDCF1000C7EEB0B
:1004500000006EEB0101B1F5801F1BD3B1F5001F49
:100460000CD349085FEA30004FEA3C0C04F1010468
:100470004FEA445212F5800F80F09A80BCF1004F91
:1004800008BF5FEA500C50F1000041EB045141EA13
:10049000050130BD5FEA4C0C404141EB0101013CDC
:1004A00028BFB1F5801FE9D291F0000F04BF0146CB
:1004B0000020B1FA81F308BF2033A3F10B03B3F19D
:1004C00020020CDA0C3208DD02F1140CC2F10C022D
:1004D00001FA0CF021FA02F10CE002F11402D8BF8B
:1004E000C2F1200C01FA02F120FA0CFCDCBF41EA57
:1004F0000C019040E41AA2BF01EB0451294330BD26
:100500006FEA04041F3C1CDA0C340EDC04F1140402
:10051000C4F1200220FA04F001FA02F340EA0300D9
:1005200021FA04F345EA030130BDC4F10C04C4F11F
:10053000200220FA02F001FA04F340EA03002946FF
:1005400030BD21FA04F0294630BD94F0000F83F449
:10055000801306BF81F480110134013D4EE77FEA2C
:10056000645C18BF7FEA655C29D094EA050F08BF78
:1005700090EA020F05D054EA000C04BF1946104659
:1005800030BD91EA030F1EBF0021002030BD5FEA9D
:10059000545C05D14000494128BF41F0004130BDC5
:1005A00014F580043CBF01F5801130BD01F0004519
:1005B00045F0FE4141F470014FF0000030BD7FEA8C
:1005C000645C1ABF194610467FEA655C1CBF0B4687
:1005D000024650EA013406BF52EA033591EA030F9E
:1005E00041F4002130BD00BF90F0000F04BF002196
:1005F000704730B54FF4806404F132044FF00005C9
:100600004FF0000150E700BF90F0000F04BF002141
:10061000704730B54FF4806404F1320410F00045A7
:1006200048BF40424FF000013EE700BF42004FEAA2
:10063000E2014FEA31014FEA02701FBF12F07F431F
:1006400093F07F4F81F06051704732F07F4208BFD6
:10065000704793F07F4F04BF41F40021704730B5DD
:100660004FF4607401F0004521F000411CE700BF29
:1006700050EA010208BF704730B54FF000050AE0AC
:1006800050EA010208BF704730B511F0004502D5AD
:10069000404261EB41014FF4806404F132045FEAAF
:1006A000915C3FF4D8AE4FF003025FEADC0C18BF58
:1006B00003325FEADC0C18BF033202EBDC02C2F14A
:1006C000200300FA03FC20FA02F001FA03FE40EADC
:1006D0000E0021FA02F11444BDE600BF4FEA4102C8
:1006E000B2F1E04324BFB3F5001CDCF1FE5C0DD990
:1006F00001F0004C4FEAC0024CEA5070B2F1004FDA
:1007000040EB830008BF20F00100704711F0804FDC
:1007100021D113F13872BCBF01F00040704741F4A1
:1007200080114FEA5252C2F11802C2F1200C10FAA5
:100730000CF320FA02F018BF40F001004FEAC12389
:100740004FEAD32303FA0CFC40EA0C0023FA02F32D
:100750004FEA4303CCE77FEA625307D150EA013303
:100760001EBF4FF0FE4040F44000704701F00040D3
:1007700040F0FE4040F40000704700BF80F00040B1
:1007800002E000BF81F0004142001FBF5FEA410369
:1007900092EA030F7FEA226C7FEA236C6AD04FEA69
:1007A0001262D2EB1363C1BFD218414048404140AE
:1007B000B8BF5B42192B88BF704710F0004F40F460
:1007C000000020F07F4018BF404211F0004F41F47C
:1007D000000121F07F4118BF494292EA030F3FD048
:1007E000A2F1010241FA03FC10EB0C00C3F120035B
:1007F00001FA03F100F0004302D5494260EB4000EA
:10080000B0F5000F13D3B0F1807F06D340084FEA54
:10081000310102F10102FE2A51D2B1F1004F40EB49
:10082000C25008BF20F0010040EA030070474900B1
:1008300040EB0000013A28BFB0F5000FEDD2B0FA4E
:1008400080FCACF1080CB2EB0C0200FA0CF0AABF71
:1008500000EBC25052421843BCBFD040184370470F
:1008600092F0000F81F4000106BF80F40000013215
:10087000013BB5E74FEA41037FEA226C18BF7FEAEC
:10088000236C21D092EA030F04D092F0000F08BF2E
:100890000846704790EA010F1CBF0020704712F015
:1008A0007F4F04D1400028BF40F00040704712F154
:1008B00000723CBF00F50000704700F0004343F0B9
:1008C000FE4040F4000070477FEA226216BF0846EF
:1008D0007FEA23630146420206BF5FEA412390EAB2
:1008E000010F40F4800070474FF0000304E000BFA8
:1008F00010F0004348BF40425FEA000C08BF704759
:1009000043F0964301464FF000001CE050EA01021C
:1009100008BF70474FF000030AE000BF50EA010231
:1009200008BF704711F0004302D5404261EB41011E
:100930005FEA010C02BF84460146002043F0B64343
:1009400008BFA3F18053A3F50003BCFA8CF2083A68
:10095000A3EBC25310DB01FA02FC634400FA02FC71
:10096000C2F12002BCF1004F20FA02F243EB020078
:1009700008BF20F00100704702F1200201FA02FCDA
:10098000C2F1200250EA4C0021FA02F243EB0200CD
:1009900008BF20EADC7070474FF0FF0C1CEAD05211
:1009A0001EBF1CEAD15392EA0C0F93EA0C0F6FD0D2
:1009B0001A4480EA010C400218BF5FEA41211ED0B0
:1009C0004FF0006343EA501043EA5111A0FB01319C
:1009D0000CF00040B1F5000F3EBF490041EAD37171
:1009E0005B0040EA010062F17F02FD2A1DD8B3F1ED
:1009F000004F40EBC25008BF20F00100704790F05C
:100A0000000F0CF0004C08BF49024CEA502040EAAD
:100A100051207F3AC2BFD2F1FF0340EAC250704773
:100A200040F400004FF00003013A5DDC12F1190FB1
:100A3000DCBF00F000407047C2F10002410021FA23
:100A400002F1C2F1200200FA02FC5FEA310040F13B
:100A5000000053EA4C0308BF20EADC70704792F0B4
:100A6000000F00F0004C02BF400010F4000F013AEC
:100A7000F9D040EA0C0093F0000F01F0004C02BFE7
:100A8000490011F4000F013BF9D041EA0C018FE756
:100A90000CEAD15392EA0C0F18BF93EA0C0F0AD05C
:100AA00030F0004C18BF31F0004CD8D180EA010082
:100AB00000F00040704790F0000F17BF90F0004F1B
:100AC000084691F0000F91F0004F14D092EA0C0FFD
:100AD00001D142020FD193EA0C0F03D14B0218BF90
:100AE000084608D180EA010000F0004040F0FE40D6
:100AF00040F40000704740F0FE4040F44000704772
:100B00004FF0FF0C1CEAD0521EBF1CEAD15392EAF0
:100B10000C0F93EA0C0F69D0A2EB030280EA010CE0
:100B200049024FEA402037D04FF0805343EA111179
:100B300043EA10130CF000408B4238BF5B0042F1D7
:100B40007D024FF4000C8B4224BF5B1A40EA0C007C
:100B5000B3EB510F24BFA3EB510340EA5C00B3EBAE
:100B6000910F24BFA3EB910340EA9C00B3EBD10F9C
:100B700024BFA3EBD10340EADC001B0118BF5FEAEE
:100B80001C1CE0D1FD2A3FF650AF8B4240EBC25017
:100B900008BF20F0010070470CF0004C4CEA5020D8
:100BA0007F32C2BFD2F1FF0340EAC250704740F427
:100BB00000004FF00003013A37E792F0000F00F019
:100BC000004C02BF400010F4000F013AF9D040EA97
:100BD0000C0093F0000F01F0004C02BF490011F42B
:100BE000000F013BF9D041EA0C0195E70CEAD15323
:100BF00092EA0C0F08D142027FF47DAF93EA0C0F0A
:100C00007FF470AF084676E793EA0C0F04D14B02ED
:100C10003FF44CAF08466EE730F0004C18BF31F09F
:100C2000004CCAD130F000427FF45CAF31F0004399
:100C30007FF43CAF5FE700BF4FEA4002B2F1FE4FE6
:100C40000FD34FF09E03B3EB12620DD94FEA00238E
:100C500043F0004310F0004F23FA02F018BF404267
:100C600070474FF00000704712F1610F01D142024E
:100C700005D110F0004008BF6FF0004070474FF002
:100C80000000704742000ED2B2F1FE4F0BD34FF07E
:100C90009E03B3EB126209D44FEA002343F00043F2
:100CA00023FA02F070474FF00000704712F1610F15
:100CB00001D1420202D14FF0FF3070474FF00000E7
:100CC000704700BF10B5054C237833B9044B13B1FE
:100CD0000448AFF300800123237010BD0C000020F6
:100CE00000000000DC23000808B5034B1BB10349DA
:100CF0000348AFF3008008BD000000001000002092
:100D0000DC23000872B6FEE710B594B00AAC2822C6
:100D10000021204601F035FB00230593069307933D
:100D200008930993019302930393049301220A9277
:100D30004FF480330B930E920222119212934FF4D0
:100D4000E0131393204600F057FAC0B90F23059320
:100D500002210691002307934FF4806208920993C1
:100D600005A800F07BFC60B9022301934FF4004317
:100D7000039301A800F03EFD28B914B010BDFFF7A1
:100D8000C1FFFFF7BFFFFFF7BDFF0000000000003D
:100D90002DE9F04184B0002700F0F4F9FFF7B4FF2B
:100DA00000F098F800F09AFF00F03EF9424A01ABDB
:100DB00007CA03C31A706AE0204601F0AFF887B291
:100DC0003846FFF791FD3D49FFF79AFEFFF72EFCED
:100DD00037A3D3E90023FFF79BF9FFF77FFC064613
:100DE0003749FFF7D9FDFFF727FF364B83FB002379
:100DF000C417C4EB63144FF0640808FB1404E4B296
:100E000031493046FFF7C8FDFFF73CFFC0B22F4B1A
:100E1000A3FB0012D20802EB8202A0EB4200C5B293
:100E2000A3FB0423DB0803EB8303A4EB4304E4B23A
:100E300001AA0021084600F052F900220D21762077
:100E400000F043F900220821202000F03EF90022A2
:100E50000A212E2000F039F93046FFF7EDFEC0B22E
:100E600030303035EDB23034E4B200220921C0B266
:100E700000F02BF900220B21284600F026F9002271
:100E80000C21204600F021F9404600F049F9104CB1
:100E9000204601F02DF90A21204600F07DFF204672
:100EA00001F0E0F810F4007F86D189E7AFF300800D
:100EB0006666666666660A40F423000800F07F45B1
:100EC0000000C8421F85EB5100002041CDCCCCCCA6
:100ED0002C0000202DE9F04188B004AD00240494DA
:100EE000059406940794204B9A6942F020029A6177
:100EF0009A6902F020020192019A9A6942F0040272
:100F00009A619A6902F004020292029A9A6942F086
:100F100008029A619B6903F008030393039BDFF8BF
:100F20004C802246FF21404600F066FE104F2246CC
:100F30004FF4E041384600F05FFEFF2304930126A2
:100F40000596069407962946404600F04BFD4FF45F
:100F5000E04304930596069407962946384600F028
:100F600041FD08B0BDE8F0810010024000080140DA
:100F7000000C0140FEE7FEE7FEE7FEE7FEE77047F4
:100F80007047704708B500F00FF908BD82B00E4BEE
:100F90009A6942F001029A619A6902F00102009294
:100FA000009ADA6942F08052DA61DB6903F080531B
:100FB0000193019B054A536823F0E06343F00073FB
:100FC000536002B0704700BF0010024000000140B3
:100FD00038B505460A2000F0A3F8114C00224FF462
:100FE0008051204600F008FE00224FF400512046B8
:100FF00000F002FE01224FF48041204600F0FCFD8B
:10100000012000F08DF8074BDD6000224FF4804195
:10101000204600F0F1FD012000F082F838BD00BF4D
:10102000000C01400008014008B53820FFF7D0FF50
:10103000052000F075F83820FFF7CAFF0120FFF700
:10104000C7FF642000F057F80620FFF7C1FF6420B7
:1010500000F051F80F20FFF7BBFF08BD38B505467B
:10106000012000F05DF80F4C01224FF48051204622
:1010700000F0C2FD00224FF40051204600F0BCFDFC
:1010800001224FF48041204600F0B6FD064BDD60A2
:1010900000224FF48041204600F0AEFD012000F018
:1010A0003FF838BD000C01400008014008B511B1FF
:1010B000012905D008BD80F08000FFF789FFF9E71E
:1010C0004038C0B2FFF784FFF4E710B50446084685
:1010D0001146FFF7EBFF2046FFF7C0FF10BD10B52C
:1010E0001446FFF7E3FF02E00134FFF7B7FF207873
:1010F0000028F9D110BD00EBC000C0004FF0E02384
:10110000586100229A6105221A614FF0E0231B69A1
:1011100013F4803FF9D04FF0E02304221A617047A6
:1011200010B504E04FF47A70FFF7E5FF2046441E47
:101130000028F7D110BD000010B504460E4B1A78F8
:101140004FF47A73B3FBF2F30C4A1068B0FBF3F080
:1011500000F0AEFD68B90F2C01D901200AE0002291
:1011600021464FF0FF3000F093FD054B1C6000203E
:1011700000E0012010BD00BF00000020080000209A
:101180000400002008B5074A136843F010031360F9
:10119000032000F06BFD0020FFF7CEFFFFF7F6FE07
:1011A000002008BD00200240034A1168034B1B7851
:1011B0000B441360704700BF28000020000000208F
:1011C000014B1868704700BF2800002082B0084B10
:1011D0001B68084AA2FB03235B0A00FB03F301938D
:1011E00000BF019B5A1E0192002BF9D102B070473B
:1011F00008000020D34D6210002800F0F18170B586
:1012000082B00446036813F0010F2CD0994B5B6841
:1012100003F00C03042B1DD0964B5B6803F00C030A
:10122000082B12D06368B3F5803F41D0002B55D115
:1012300003F1804303F504331A6822F480321A6004
:101240001A6822F480221A6037E08A4B5B6813F434
:10125000803FE7D0874B1B6813F4003F03D06368DF
:10126000002B00F0BF81236813F0020F75D0814B73
:101270005B6813F00C0F5FD07E4B5B6803F00C03D0
:10128000082B54D02369002B00F08A807A4B01226E
:101290001A60FFF795FF0546764B1B6813F0020FA7
:1012A00075D1FFF78DFF401B0228F5D903209EE181
:1012B000704A136843F480331360636843B3FFF7E5
:1012C0007FFF05466B4B1B6813F4003FCBD1FFF744
:1012D00077FF401B6428F5D9032088E1B3F5A02FE0
:1012E00009D0644B1A6822F480321A601A6822F41A
:1012F00080221A60E1E703F18043A3F53C331A68CA
:1013000042F480221A601A6842F480321A60D4E7EC
:10131000FFF756FF0546574B1B6813F4003FA2D05A
:10132000FFF74EFF401B6428F5D903205FE1514BC6
:101330005B6813F4803FA5D14E4B1B6813F0020F7E
:1013400003D02369012B40F04F814A4A136823F0F0
:10135000F803616943EAC1031360236813F0080FBF
:1013600033D0A369002B5CD0434B0122C3F8802407
:10137000FFF726FF05463F4B5B6A13F0020F21D1B2
:10138000FFF71EFF401B0228F5D903202FE1394A41
:10139000136823F0F803616943EAC1031360DCE7D3
:1013A000354B00221A60FFF70BFF0546314B1B68D7
:1013B00013F0020FD1D0FFF703FF401B0228F5D92D
:1013C000032014E10120FFF701FF236813F0040F4D
:1013D00000F09680274BDB6913F0805F34D1254BFA
:1013E000DA6942F08052DA61DB6903F080530193DD
:1013F000019B0125214B1B6813F4807F26D0E368F5
:10140000012B3DD0002B53D103F1804303F504336E
:101410001A6A22F001021A621A6A22F004021A629F
:1014200033E0154B0022C3F88024FFF7C9FE0546C0
:10143000104B5B6A13F0020FC7D0FFF7C1FE401BD1
:101440000228F5D90320D2E00025D3E70B4A136820
:1014500043F480731360FFF7B3FE0646074B1B6827
:1014600013F4807FCBD1FFF7ABFE801B6428F5D946
:101470000320BCE000100240000042420070004027
:101480005F4A136A43F001031362E36833B3FFF763
:1014900097FE06465A4B1B6A13F0020F2FD1FFF737
:1014A0008FFE801B41F288339842F3D903209EE0DF
:1014B000052B09D0524B1A6A22F001021A621A6AED
:1014C00022F004021A62E0E74D4B1A6A42F004026D
:1014D0001A621A6A42F001021A62D6E7FFF770FE3A
:1014E0000646474B1B6A13F0020F08D0FFF768FE51
:1014F000801B41F288339842F3D9032077E0E5B9A5
:10150000E369002B72D03E4A526802F00C02082AAE
:1015100056D0022B17D03B4B00221A66FFF750FE25
:101520000446374B1B6813F0007F47D0FFF748FE97
:10153000001B0228F5D9032059E0314AD36923F072
:101540008053D361DCE72F4B00221A66FFF738FE89
:1015500005462B4B1B6813F0007F06D0FFF730FECB
:10156000401B0228F5D9032041E0236AB3F5803FF0
:101570001AD023494B6823F47413226A606A024329
:1015800013434B601F4B01221A66FFF719FE0446F6
:101590001B4B1B6813F0007F0ED1FFF711FE001BE1
:1015A0000228F5D9032022E0154A536823F40033BA
:1015B000A1680B435360DCE7002018E0002016E030
:1015C000012B16D00E4B5B6803F48031226A9142E6
:1015D00011D103F47013626A93420ED1002006E029
:1015E00001207047012002E0012000E0002002B04D
:1015F00070BD0120FBE70120F9E70120F7E700BFFC
:1016000000100240000042420F4B5B6803F00C02E6
:10161000082A01D00D487047C3F383420C49885C07
:1016200013F4803F0BD0084B5B68C3F34043094A77
:10163000D35C064A02FB00F0B0FBF3F07047064BA8
:1016400003FB00F0704700BF0010024000127A0058
:10165000042400080024000800093D00002800F0D0
:10166000A08070B50D460446524B1B6803F007037B
:101670008B420BD24F4A136823F007030B431360CE
:10168000136803F007038B4240F08D80236813F04A
:10169000020F17D013F0040F04D0474A536843F4E5
:1016A000E0635360236813F0080F04D0424A536884
:1016B00043F460535360404A536823F0F003A16839
:1016C0000B435360236813F0010F31D06368012B83
:1016D00020D0022B25D0384A126812F0020F64D0B5
:1016E00035494A6822F0030213434B60FFF768FD57
:1016F0000646314B5B6803F00C036268B3EB820F64
:1017000016D0FFF75DFD801B41F288339842F0D977
:10171000032045E0284A126812F4003FE0D101207E
:101720003EE0254A126812F0007FD9D1012037E04F
:10173000204B1B6803F00703AB420AD91D4A13680C
:1017400023F007032B431360136803F00703AB4236
:101750002DD1236813F0040F06D0174A536823F4E1
:10176000E063E1680B435360236813F0080F07D070
:10177000114A536823F46053216943EAC10353605B
:10178000FFF742FF0C4B5B68C3F303130B4AD35CB8
:10179000D8400B4B18600B4B1868FFF7CDFC0020AE
:1017A00070BD012070470120FAE70120F8E7012011
:1017B000F6E700BF0020024000100240302400087D
:1017C0000800002004000020014B1868704700BF8B
:1017D0000800002008B5FFF7F7FF044B5B68C3F370
:1017E000C223034AD35CD84008BD00BF00100240AA
:1017F0002824000870B582B00446036813F0010F76
:1018000036D03F4BDB6913F0805F4AD13C4BDA693D
:1018100042F08052DA61DB6903F080530193019B4F
:101820000125384B1B6813F4807F3CD0344B1B6A76
:1018300013F4407313D0626802F440729A420ED0DF
:101840002F4A136A23F440702F490126C1F84064DF
:101850000026C1F84064106213F0010F37D1284A06
:10186000136A23F4407361680B431362002D3FD168
:10187000236813F0020F06D0214A536823F4404333
:10188000A1680B435360236813F0100F35D01C4A36
:10189000536823F48003E1680B435360002002B0D7
:1018A00070BD0025BDE7174A136843F480731360C9
:1018B000FFF786FC0646134B1B6813F4807FB5D1F7
:1018C000FFF77EFC801B6428F5D90320E7E7FFF7CC
:1018D00077FC06460A4B1B6A13F0020FBFD1FFF7D5
:1018E0006FFC801B41F288339842F3D90320D6E77E
:1018F000D36923F08053D361BAE70020CFE700BF5C
:1019000000100240007000400000424208B502286A
:101910004ED0102803D0012828D0002052E02B4BB5
:101920005A68186810F080704CD0C2F3834328497D
:10193000C85C12F4803F15D0244B5B68C3F340436E
:10194000244AD25C244BB3FBF2F303FB00F01F4BA1
:101950005B6813F4800F35D14000204BA3FB0030AF
:1019600040082FE01E4B03FB00F0F0E7174B1B6A0B
:1019700040F202321A40B2F5817F24D003F4407362
:10198000B3F5007F04D0B3F5407F09D0002019E003
:101990000E4A526A12F0020FF5D049F6404011E0AB
:1019A0000A4B186810F400300CD04FF2244009E0C4
:1019B000FFF710FF054B5B68C3F3813301335B0016
:1019C000B0FBF3F008BD4FF40040FBE7001002400D
:1019D000182400081424000800127A00ABAAAAAA4E
:1019E00000093D0070B582B00024A4469EE07C4D05
:1019F000AB4214D00CD8A5F58015AB420FD005F53D
:101A00007025AB420BD0A5F58015AB421FD106E087
:101A1000744DAB4203D005F58035AB4217D18B68CE
:101A2000A3B1012B0DD04261082410E0CC680EE078
:101A3000CC6804340BE0CC68083408E0CC680C3483
:101A400005E00261082402E0002400E00424BEF165
:101A5000FF0F37D806464FEA8C0233680F259540B2
:101A600023EA050304FA02F2134333604B6813F0D0
:101A7000805F59D05C4B9A6942F001029A619B6980
:101A800003F001030193019B4FEA9C02951C574B05
:101A900053F825600CF00305AD000F23AB4026EA98
:101AA0000306534B984214D003F58063984279D0D3
:101AB00003F58063984277D003F58063984206D09F
:101AC000042307E0061DACF108029200C5E70323DA
:101AD00000E00023AB4033430232444D45F822304E
:101AE0004B6813F4801F61D0424A936843EA0E03A7
:101AF00093604B6813F4001F5ED03E4AD36843EAFC
:101B00000E03D3604B6813F4003F5BD0394A53682F
:101B100043EA0E0353604B6813F4803F58D0354AB4
:101B2000136843EA0E0313600CF1010C0B6833FADF
:101B30000CF253D0012202FA0CF203EA020E32EA4E
:101B40000303F1D14B68122B3FF651AF122B3FF636
:101B50007EAF01A555F823F01F1A00082D1A0008C2
:101B6000371A0008491A00084F1A00084F1A0008CF
:101B70004F1A00084F1A00084F1A00084F1A0008A1
:101B80004F1A00084F1A00084F1A00084F1A000891
:101B90004F1A00084F1A00084F1A0008311A00089F
:101BA0003D1A0008012395E7022393E7114A936841
:101BB00023EA0E0393609CE70E4AD36823EA0E03E0
:101BC000D3609FE70B4A536823EA0E035360A2E7F2
:101BD000084A136823EA0E031360A5E702B070BD3C
:101BE00000002210000031100010024000000140EF
:101BF00000080140000401400AB101617047090476
:101C000001617047002808DB0901C9B200F160409A
:101C100000F5614080F80013704700F00F000901E3
:101C2000C9B2014B1954704714ED00E000B500F043
:101C30000700C0F1070CBCF1040F28BF4FF0040CE3
:101C4000031D062B0FD9C31E4FF0FF3E0EFA0CF0FA
:101C500021EA000199400EFA03FE22EA0E0241EA4F
:101C600002005DF804FB0023EEE70000074AD3689A
:101C700023F4E0631B041B0C000200F4E060034348
:101C800043F0BF6343F40033D360704700ED00E0DE
:101C900010B50446054BD868C0F30220FFF7C6FF15
:101CA00001462046FFF7AEFF10BD00BF00ED00E08B
:101CB0000138B0F1807F0BD24FF0E0235861054A24
:101CC000F02182F823100020986107221A617047E2
:101CD0000120704700ED00E07047000000B585B0BE
:101CE00000230193029303931148124A0260836018
:101CF0000122027303754FF46021C16143600261E8
:101D000000F096FA68B90823019301230293002397
:101D1000039301A9064800F005F928B905B05DF85C
:101D200004FBFEF7EFFFEEE7FEF7ECFFF6E700BF80
:101D30002C0000200024014000B587B0002302934E
:101D40000393049305930268114B9A4202D007B0A3
:101D50005DF804FB03F56C439A6942F400729A61E2
:101D60009A6902F400720092009A9A6942F008029D
:101D70009A619B6903F008030193019B012302937D
:101D80000323039302A90348FFF72CFEDFE700BFFC
:101D900000240140000C0140F0B583B005460C461C
:101DA00000230193FFF70CFA2B689A6812F4807FE6
:101DB00023D107465A6812F4807F03D1DB6A13F4FB
:101DC000700F29D0504B1E680220FFF79FFDB6FB15
:101DD000F0F62B6819694D4A114236D1D96802F1E3
:101DE0005C42114231D11969494A114240D1DA6845
:101DF000484B1A423ED0292341E0AB6A43F020030E
:101E0000AB62002385F82430012003B0F0BD2B68BD
:101E10001B6813F0020F0FD02B681B6813F0020F22
:101E20004FD1B4F1FF3FF7D0002CF0D0FFF7C8F945
:101E3000C31BA342F0D9EAE7AB6A43F00403AB62E9
:101E4000002385F824300320DFE71969304A114266
:101E500004D1D96802F16E4211420DD019692E4A9F
:101E60000A405AB9DA682C4B13405BB1FC2306E0F8
:101E7000292304E0142302E0542300E0FC2303FBA5
:101E800006F607E05423FAE7019BB34210D3019B07
:101E900001330193019BB34213D2B4F1FF3FF6D05B
:101EA000002CF1D0FFF78CF9C01BA042EFD9EBE773
:101EB000AB6A43F00403AB62002385F824300320AF
:101EC000A3E72B686FF012021A60AB6A43F4007349
:101ED000AB622B689B6803F46023B3F5602F01D0DD
:101EE000002092E7287B60B9AB6A23F48073AB6271
:101EF000AB6A13F4805F88D1AB6A43F00103AB6235
:101F000083E7002081E700BF0800002024499224D5
:101F10009224491292244900499224000368D86C03
:101F20007047000030B482B00022019290F8242063
:101F3000012A00F08F800346012280F824204A689D
:101F4000062A2DD80468606B02EB8202053A4FF036
:101F50001F0C0CFA02FC20EA0C000D6805FA02F2D4
:101F6000024362630A68092A38D91C68E06802EBF8
:101F700042021E3A4FF0070C0CFA02FC20EA0C0059
:101F80008D6805FA02F20243E2600A68103A012AFB
:101F900034D90020002283F8242002B030BC7047DE
:101FA0000C2A0DD80568286B02EB8202233A1F2405
:101FB000944020EA04000C68944020432863D1E751
:101FC0000568E86A02EB8202413A1F24944020EA45
:101FD00004000C6894402043E862C3E71C68206951
:101FE00002EB42024FF0070C0CFA02FC20EA0C0054
:101FF0008D6805FA02F202432261C6E71A681648A4
:10200000824205D09A6A42F020029A620120C1E71A
:10201000906810F4000F1BD1906840F400009060AD
:102020000A68102A01D00020B4E70C4A12680C4953
:10203000A1FB0212920C02EB82025200019202E01A
:10204000019A013A0192019A002AF9D10020A1E7F0
:1020500000209FE70220A0E70024014008000020A4
:1020600083DE1B43806A704730B583B00023019341
:1020700003689A6812F0010F33D104469A6842F05F
:1020800001029A60184B1B68184AA2FB03239B0CA1
:10209000019302E0019B013B0193019B002BF9D1CD
:1020A000FFF78EF8054623689B6813F0010F16D1E1
:1020B000FFF786F8431B022BF5D923689B6813F0C2
:1020C000010FF0D1A36A43F01003A362E36A43F067
:1020D0000103E362002384F82430012002E00020A1
:1020E00000E0002003B030BD0800002083DE1B4369
:1020F00090F82430012B68D010B50446012380F8F5
:102100002430FFF7B1FF00285BD1A36A23F44073AA
:1021100023F0010343F48073A36223682C4A9342A3
:1021200027D0A26A22F48012A2625A6812F4806F49
:1021300005D0A26A22F4405242F48052A262A26AFE
:1021400012F4805F2BD0E26A22F00602E2620022E3
:1021500084F824206FF002021A6023689A6802F45F
:102160006022B2F5602F1DD09A6842F480129A6006
:102170002AE0A2F58062526812F4702FD1D0A26AD0
:1021800042F48012A262134A526812F4806FD6D0D1
:10219000A26A22F4405242F48052A262CFE70022A7
:1021A000E262D4E70A4A934204D09A6842F4A00259
:1021B0009A6009E0A2F58062526812F4702FD3D1C0
:1021C000F3E7002384F8243010BD0220704700BFDD
:1021D000002801400024014038B503689A6812F0D5
:1021E000010F01D1002038BD04469A6822F0010297
:1021F0009A60FEF7E5FF054623689B6813F0010F20
:1022000013D0FEF7DDFF431B022BF5D923689B6833
:1022100013F0010FF0D0A36A43F01003A362E36A46
:1022200043F00103E3620120DDE70020DBE700006B
:1022300000287BD070B50446836A002B4DD0204621
:10224000FFF7CAFFA36A13F0100369D1002867D112
:10225000A26A22F4885222F0020242F00202A26232
:102260006268E1690A43217B42EA4102A568B5F54B
:10227000807F02D0012D36D01D46267D012E35D01F
:102280002668716821F46941294371602568AE6848
:10229000274931401143A960A168B1F5807F01D081
:1022A000012902D12369013B1B052568E96A21F454
:1022B00070010B43EB62236899681E4B0B409A42F6
:1022C00025D0A36A23F0120343F01003A362E36A4C
:1022D00043F00103E362012027E0C36280F8243069
:1022E000FFF72AFDABE74FF48075C6E731B9A16966
:1022F000013945EA413141F40065C1E7A16A41F085
:102300002001A162E16A41F00101E162B8E7002326
:10231000E362A36A23F0030343F00103A36204E032
:10232000A36A43F01003A362012070BD012070472F
:10233000FDF7E1FFFE0E1FFFFFF7CEFC0B480C4937
:102340000C4A002302E0D458C4500433C4188C4211
:10235000F9D3094A094C002301E013600432A24278
:10236000FBD300F017F8FEF713FD704700000020C4
:102370000C000020482400080C0000205C00002015
:10238000FEE703460244934200D1704703F8011B65
:10239000F9E7000070B500260C4D0D4C641BA4102D
:1023A000A64209D100F01AF800260A4D0A4C641B17
:1023B000A410A64205D170BD55F8043B98470136DC
:1023C000EEE755F8043B98470136F2E74024000851
:1023D000402400084024000844240008F8B500BF49
:1023E000F8BC08BC9E467047F8B500BFF8BC08BCF6
:0423F0009E4670474E
:1023F400766F6C746167653A0000000001020000AA
:1024040002030405060708090A0B0C0D0E0F101031
:102414000102000002030405060708090A0B0C0D5B
:102424000E0F101000000000010203040000000061
:0C24340000000000010203040607080974
:04244000E90C00089B
:04244400C50C0008BB
:0C24480001000000100000000024F4005F
:040000050800233993
:00000001FF
